:100000000C94FE670C94F9840C94CE840C94A38415
:100010000C9478840C944D840C9422840C94F78373
:100020000C94CC830C942F680C942F680C942F683C
:100030000C942F680C942F680C942F680C942F68E4
:100040000C942F680C9432910C942F680C942F68A8
:100050000C942F680C942F680C942F680C940D97B7
:100060000C942F680C942F680C942F680C942F68B4
:100070000C942F680C942F680C942F680C942F68A4
:100080000C942F680C942F680C942F680C942F6894
:100090000C942F680C942F680C942F680C94557650
:1000A0000C942F680C942F680C942F680C942F6874
:1000B0000C942F680C942F680C942F680C94169154
:1000C0000C942F680C942F680C942F680C942F6854
:1000D0000C942F680C942F680C942F680C942F6844
:1000E0000C942F685A68A86EB06EB66ECF6E0D6F06
:1000F0007F6F9F6F316A6F6ABA6AF86A366B786B86
:10010000786B786B786B316A6F6ABA6AF86AE87AEA
:10011000F37AFE7A097B127B317B3C7B437B297D22
:100120002E7D587D827DAC7DBE7DCF7DE17DF37DD2
:10013000057E167E287E3A7E4C7E5D7E6F7EB9857A
:10014000BC85AB85AF85B585F385C085C485CA857B
:10015000CE85D285D885DC85E085F385E685EA8580
:10016000EE858301028501038B01018C01939101CE
:10017000018301003E0CB003105613462376005E47
:100180004F401701912B01F9FF0A1B01141A0111AD
:100190001C01061F0142FF1419010A19011AFF2848
:1001A000190112FF281E0127FF642401603D014050
:1001B000340138350138240138FF2824013C160168
:1001C0001C01010655010602020000040200EF06B0
:1001D0000200000802018F00000000000000000083
:1001E000000000000000000000000000000000000F
:1001F00000000000000000000000000000000000FF
:1002000000000000000000000000000000000000EE
:1002100000000000000000000000000000000000DE
:1002200000000000000000000000000000000000CE
:1002300000000000000000000000000000000000BE
:1002400000000000000000000000000000000000AE
:10025000000000000000000000000000000000009E
:10026000000000000000000000000000000000008E
:10027000000000000000000000000000000000007E
:10028000000000000000000000000000000000006E
:10029000000000000000000000000000000000005E
:1002A000000000000000000000000000000000004E
:1002B000000000000000000000000000000000003E
:1002C000000000000000000000000000000000002E
:1002D000000000000000000000000000000000001E
:1002E000000000000000000000000000000000000E
:1002F00000000000000000000000000000000000FE
:1003000000000000000000000000000000000000ED
:1003100000000000000000000000000000000000DD
:1003200000000000000000000000000000000000CD
:1003300000000000000000000000000000000000BD
:1003400000000000000000000000000000000000AD
:10035000000000000000000000000000000000009D
:10036000000000000000000000000000000000008D
:10037000000000000000000000000000000000007D
:100380000000000000000040106149417A22ABC328
:10039000CB23E483F483F483F483F423E4C3CB22F8
:1003A000AB417A61494010000000000000000000ED
:1003B000000000000000000000000000000000003D
:1003C000000000000000000000000000000000002D
:1003D000000000000000000000000000000000001D
:1003E000000000000000000000000000000000000D
:1003F00000000000000000000000000000000000FD
:10040000006010016A82BB83F4A3F4A3F4A3F4A3F5
:10041000F4A3F4A3F4A3F4A3F4A3F4A3F4A3F4A324
:10042000F4A3F4A3F483F482BB016A60100000001B
:1004300000000000000000000000000000000000BC
:1004400000000000000000000000000000000000AC
:10045000000000000000000000000000000000009C
:10046000000000000000000000000000000000008C
:100470000000000000000000000000000000310249
:10048000A383F4A3F4A3F4A3F4A3F427F5ABFD0F23
:10049000FE72FE94FEB4FEB4FE94FE72FE0FFEAB3E
:1004A000FD27F5A3F4A3F4A3F4A3F483F402A300BB
:1004B000310000000000000000000000000000000B
:1004C000000000000000000000000000000000002C
:1004D000000000000000000000000000000000001C
:1004E000000000000000000000000000000000000C
:1004F000000000000000000000C02842B3A3F4A3E5
:10050000F4A3F4C4F4ABFD93FE39FF7BFF7BFF7BC8
:10051000FF7BFF7BFF7BFF7BFF7BFF7BFF7BFF7B0B
:10052000FF7BFF39FF93FEABFDC4F4A3F4A3F4A358
:10053000F442B3C0280000000000000000000000EA
:1005400000000000000000000000000000000000AB
:10055000000000000000000000000000000000009B
:10056000000000000000000000000000000000008B
:1005700000000000002008A28AA3F4A3F4A3F4273B
:10058000F551FE39FF5AFF5AFF5AFF5AFF5AFF5AD8
:10059000FF5AFF5AFF5AFF5AFF5AFF5AFF5AFF5A93
:1005A000FF5AFF5AFF5AFF5AFF39FF51FE27F5A3A2
:1005B000F4A3F4A3F4A28A200800000000000000C5
:1005C000000000000000000000000000000000002B
:1005D000000000000000000000000000000000001B
:1005E000000000000000000000000000000000000B
:1005F000000000E03003D4A3F4C3F406F551FE3943
:10060000FF59FF59FF59FF59FF59FF59FF59FF592A
:10061000FF59FF59FF59FF59FF59FF59FF59FF591A
:10062000FF59FF59FF59FF59FF59FF59FF39FF5132
:10063000FE06F5C3F4A3F403D4E03000000000008C
:1006400000000000000000000000000000000000AA
:10065000000000000000000000000000000000009A
:10066000000000000000000000000000000000008A
:1006700000C159A3F4C3F4C3F4CDFD17FF38FF380C
:10068000FF38FF38FF38FF38FF38FF38FF38FF38B2
:10069000FF38FF38FF38FF38FF38FF38FF38FF38A2
:1006A000FF38FF38FF38FF38FF38FF38FF38FF3892
:1006B000FF17FFCDFDC3F4C3F4A3F4C1590000003C
:1006C000000000000000000000000000000000002A
:1006D000000000000000000000000000000000001A
:1006E00000000000000000000000000000000061A9
:1006F0007AC3F4C3F405F592FE17FF17FF17FF172F
:10070000FF17FF17FF17FF17FF17FF17FF17FF51FF
:10071000FEEFFDEFFDEFFDEFFDEFFDEFFD51FE17ED
:10072000FF17FF17FF17FF17FF17FF17FF17FF1719
:10073000FF17FF17FF92FE05F5C3F4C3F4617A00BB
:1007400000000000000000000000000000000000A9
:100750000000000000000000000000000000000099
:1007600000000000000000000000000000C292C372
:10077000F4C3F447F5D4FEF6FEF6FEF6FEF6FEF6FA
:10078000FE16FF16FF16FF16FF16FF16FF16FFB523
:10079000FE74FE74FE74FE74FE74FE74FEB5FE16E6
:1007A000FF16FF16FF16FF16FF16FF16FFF6FEF6E2
:1007B000FEF6FEF6FEF6FED4FE47F5C3F4C3F4C221
:1007C0009200000000000000000000000000000097
:1007D0000000000000000000000000000000000019
:1007E0000000000000000000000000617AC3F4C3B4
:1007F000F468FDD4FEF5FEF5FEF5FEF5FEF5FEF51A
:10080000FEF5FEF5FEF5FEF5FEF5FEF5FEF5FEBD88
:10081000FFFFFFFFFFFFFFFFFFFFFFFFFFBDFFF534
:10082000FEF5FEF5FEF5FEF5FEF5FEF5FEF5FEF530
:10083000FEF5FEF5FEF5FEF5FED4FE68FDC3F4C33D
:10084000F4617A00000000000000000000000000D9
:100850000000000000000000000000000000000098
:10086000000000000000000000E159C3F4E3F44779
:10087000FDB4FED5FED5FED5FED5FED5FED5FED502
:10088000FED5FED5FED5FED5FED5FED5FED5FEBDE8
:10089000FFFFFFFFFFFFFFFFFFFFFFFFFFBDFFD5D4
:1008A000FED5FED5FED5FED5FED5FED5FED5FED5B0
:1008B000FED5FED5FED5FED5FED5FEB4FE47FDE342
:1008C000F4E3F4E159000000000000000000000023
:1008D0000000000000000000000000000000000018
:1008E000000000000000000031C3F4E3FC25FD928D
:1008F000FEB4FEB4FED4FED4FED4FED4FED4FED4A8
:10090000FED4FED4FED4FED4FED4FED4FED4FEBC6F
:10091000FFFFFFFFFFFFFFFFFFFFFFFFFFBCFFD455
:10092000FED4FED4FED4FED4FED4FED4FED4FED437
:10093000FED4FED4FED4FED4FEB4FEB4FE92FE2558
:10094000FDE3FCC3F40031000000000000000000E3
:100950000000000000000000000000000000000097
:100960000000000000200823D4E3FCE3FC4FFEB3AA
:10097000FEB3FEB3FEB3FEB3FEB3FEB3FEB3FEB3EF
:10098000FEB3FEB3FEB3FEB3FEB3FEB3FEB3FEBCD6
:10099000FFFFFFFFFFFFFFFFFFFFFFFFFFBCFFB3F6
:1009A000FEB3FEB3FEB3FEB3FEB3FEB3FEB3FEB3BF
:1009B000FEB3FEB3FEB3FEB3FEB3FEB3FEB3FE4F13
:1009C000FEE3FCE3FC23D42008000000000000004C
:1009D0000000000000000000000000000000000017
:1009E0000000000000C28AE3FCE3FCCAFD92FE9214
:1009F000FE92FE92FE2FFEE8F491FEB2FEB2FEB22F
:100A0000FEB2FEB2FEB2FEB2FEB2FEB2FEB2FEBC5C
:100A1000FFFFFFFFFFFFFFFFFFFFFFFFFFBCFFB276
:100A2000FEB2FEB2FEB2FEB2FEB2FEB2FEB2FEB246
:100A3000FEB2FE91FEE8F42FFE92FE92FE92FE922E
:100A4000FECAFDE3FCE3FCC28A00000000000000D7
:100A50000000000000000000000000000000000096
:100A6000000000E028E3F403FD25FD71FE91FE91F6
:100A7000FE91FE50FE6DFD7CFF0AF571FE91FE9128
:100A8000FE91FE91FE91FE91FE91FE91FE91FEBCC3
:100A9000FFFFFFFFFFFFFFFFFFFFFFFFFFBCFF9117
:100AA000FE91FE91FE91FE91FE91FE91FE91FE91CE
:100AB000FE71FE0AF57CFF6DFD50FE91FE91FE91E8
:100AC000FE71FE25FD03FDE3F4E0280000000000B8
:100AD0000000000000000000000000000000000016
:100AE00000000082B303FD03FDECFD70FE70FE709C
:100AF000FE70FE4BF5DEFFFFFF9CFF0AF570FE90D7
:100B0000FE90FE90FE90FE90FE90FE90FE90FE9C69
:100B1000FFFFFFFFFFFFFFFFFFFFFFFFFF9CFF90B7
:100B2000FE90FE90FE90FE90FE90FE90FE90FE7075
:100B3000FE0AF59CFFFFFFDEFF4BF570FE70FE70B6
:100B4000FE70FEECFD03FD03FD82B300000000001B
:100B50000000000000000000000000000000000095
:100B600000003103FD03FD45FD50FE70FE70FE7078
:100B7000FE6BF59CFFFFFFFFFFFFFF9CFF09F56F7A
:100B8000FE70FE90FE90FE90FE90FE90FE90FE9B0A
:100B9000FFFFFFFFFFFFFFFFFFFFFFFFFF9BFF9038
:100BA000FE90FE90FE90FE90FE90FE70FE6FFE099D
:100BB000F59CFFFFFFFFFFFFFF9CFF6BF570FE70D2
:100BC000FE70FE50FE45FD03FD03FD0031000000F8
:100BD0000000000000000000000000000000000015
:100BE0000062A303FD03FDCAFD4FFE4FFE4FFE0D45
:100BF000FE95FEFFFFFFFFFFFFFFFFFFFF9CFF6B68
:100C0000F56FFE6FFE6FFE6FFE6FFE6FFE6FFE9B59
:100C1000FFFFFFFFFFFFFFFFFFFFFFFFFF9BFF6FD8
:100C2000FE6FFE6FFE6FFE6FFE6FFE6FFE6BF59C3C
:100C3000FFFFFFFFFFFFFFFFFFFFFF95FE0DFE4FD2
:100C4000FE4FFE4FFECAFD03FD03FD62A300000040
:100C50000000000000000000000000000000006034
:100C60001803F503FD23FD2DFE4EFE4EFE4EFEAD98
:100C7000FDFFFFFFFFFFFFFFFFFFFFFFFFFFFF374E
:100C8000FF6EFE6EFE6EFE6EFE6EFE6EFE6EFE9BD6
:100C9000FFFFFFFFFFFFFFFFFFFFFFFFFF9BFF6E59
:100CA000FE6EFE6EFE6EFE6EFE6EFE6EFE37FFFF89
:100CB000FFFFFFFFFFFFFFFFFFFFFFFFFFADFD4E49
:100CC000FE4EFE4EFE2DFE23FD03FD03F5601800D3
:100CD00000000000000000000000000000000041D3
:100CE0006A23FD23FD66FD2DFE2DFE2DFECCFD1994
:100CF000FFFFFFFFFFFFFFFFFFFFFFFFFF9AFF4E1A
:100D0000FE4DFE4DFE6DFE6DFE6DFE6DFE6DFE9B9D
:100D1000FFFFFFFFFFFFFFFFFFFFFFFFFF9BFF6DD9
:100D2000FE6DFE6DFE6DFE6DFE6DFE4DFE4EFE9A7D
:100D3000FFFFFFFFFFFFFFFFFFFFFFFFFF19FFCCDC
:100D4000FD2DFE2DFE2DFE66FD23FD23FD416A00D7
:100D5000000000000000000000000000000000E2B1
:100D6000BB23FD23FDA8FD2DFE2DFE2DFECEFDFF98
:100D7000FFFFFFFFFFFFFFFFFFFFFFDEFF6EFE4DE8
:100D8000FE4DFE4DFE4DFE4DFE4DFE4DFE4DFE9BBD
:100D9000FFFFFFFFFFFFFFFFFFFFFFFFFF9BFF4D79
:100DA000FE4DFE4DFE4DFE4DFE4DFE4DFE4DFE6ECA
:100DB000FEDEFFFFFFFFFFFFFFFFFFFFFFFFFFCE96
:100DC000FD2DFE2DFE2DFEA8FD23FD23FDE2BB0023
:100DD00000000000000000000000000000401023A0
:100DE000F523FD23FDC9FD0CFE2CFE0CFEB6FEFF17
:100DF000FFFFFFFFFFFFFFFFFFFFFFD2FE4CFE4C98
:100E0000FE4CFE4CFE4CFE4CFE4CFE4CFE4CFE9B43
:100E1000FFFFFFFFFFFFFFFFFFFFFFFFFF9BFF4CF9
:100E2000FE4CFE4CFE4CFE4CFE4CFE4CFE4CFE4C72
:100E3000FED2FEFFFFFFFFFFFFFFFFFFFFFFFFB63A
:100E4000FE0CFE2CFE0CFEC9FD23FD23FD23F54008
:100E50001000000000000000000000000081492395
:100E6000FD43FD43FDEAFD0BFE0BFEAAFDDFFFFF88
:100E7000FFFFFFFFFFFFFFFFFFBBFF2BFE4BFE4B04
:100E8000FE4BFE4BFE4BFE4BFE4BFE4BFE4BFE9ACB
:100E9000FFFFFFFFFFFFFFFFFFFFFFFFFF9AFF4B7B
:100EA000FE4BFE4BFE4BFE4BFE4BFE4BFE4BFE4BFA
:100EB000FE2BFE9BFFFFFFFFFFFFFFFFFFFFFFDF9C
:100EC000FFAAFD0BFE0BFEEAFD43FD43FD23FD8162
:100ED00049000000000000000000000000A17A436B
:100EE000FD43FD43FDEAFD0BFE0BFE2FFEFFFFFF62
:100EF000FFFFFFFFFFFFFFFFFFD2FE2BFE2BFE2BAE
:100F0000FE4BFE4BFE4BFE4BFE4BFE4BFE4BFE9A4A
:100F1000FFFFFFFFFFFFFFFFFFFFFFFFFF9AFF4BFA
:100F2000FE4BFE4BFE4BFE4BFE4BFE4BFE4BFE2B99
:100F3000FE2BFED2FEFFFFFFFFFFFFFFFFFFFFFFC5
:100F4000FF2FFE0BFE0BFEEAFD43FD43FD43FDA11B
:100F50007A000000000000000000000000A2AB4387
:100F6000FD43FD43FDEAFD0AFE0AFED5FEFFFFFF3D
:100F7000FFFFFFFFFFFFFFDEFF2BFE2AFE2AFE2AF8
:100F8000FE2AFE4AFE4AFE4AFE4AFE4AFE4AFE9AF1
:100F9000FFFFFFFFFFFFFFFFFFFFFFFFFF9AFF4A7B
:100FA000FE4AFE4AFE4AFE4AFE4AFE2AFE2AFE2A61
:100FB000FE2AFE2BFEDEFFFFFFFFFFFFFFFFFFFF0E
:100FC000FFD5FE0AFE0AFEEAFD43FD43FD43FDA2F6
:100FD000AB00000000000000000000000063CC43F4
:100FE000FD43FD63FDE9FDE9FD09FE3AFFFFFFFF5B
:100FF000FFFFFFFFFFFFFF78FF29FE29FE29FE29E3
:10100000FE29FE29FE49FE49FE49FE49FE49FE9A97
:10101000FFFFFFFFFFFFFFFFFFFFFFFFFF9AFF49FB
:10102000FE49FE49FE49FE49FE29FE29FE29FE2908
:10103000FE29FE29FE78FFFFFFFFFFFFFFFFFFFFF6
:10104000FF3AFF09FEE9FDE9FD63FD63FD43FD6332
:10105000CC000000000000000000000000E3E4639A
:10106000FD63FD63FDE9FDE9FDE8FDBEFFFFFFFF58
:10107000FFFFFFFFFFFFFFF3FE29FE29FE29FE29E8
:10108000FE29FE29FE29FE49FE49FE49FE49FE9A37
:10109000FFFFFFFFFFFFFFFFFFFFFFFFFF9AFF497B
:1010A000FE49FE49FE49FE29FE29FE29FE29FE29A8
:1010B000FE29FE29FEF3FEFFFFFFFFFFFFFFFFFFFC
:1010C000FFBEFFE8FDE9FDE9FD63FD63FD63FDE3B0
:1010D000E400000000000000000000000043F56391
:1010E000FD63FD63FDE8FDE8FDE9FDFFFFFFFFFF98
:1010F000FFFFFFFFFFFFFFAFFE28FE28FE28FE28B0
:10110000FE28FE28FE28FE28FE28FE48FE48FE9AFD
:10111000FFFFFFFFFFFFFFFFFFFFFFFFFF9AFF48FB
:10112000FE48FE28FE28FE28FE28FE28FE28FE286F
:10113000FE28FE28FEAFFEFFFFFFFFFFFFFFFFFFC1
:10114000FFFFFFE9FDE8FDE8FD63FD63FD63FD438F
:10115000F500000000000000000000000063FD63D7
:10116000FD63FD83FDC6FDE7FD2AFEFFFFFFFFFFD8
:10117000FFFFFFFFFFFFFF6CFE27FE27FE27FE2776
:10118000FE27FE27FE27FE27FE47FE47FE47FE9965
:10119000FFFFFFFFFFFFFFFFFFFFFFFFFF99FF477D
:1011A000FE47FE47FE27FE27FE27FE27FE27FE27D7
:1011B000FE27FE27FE6CFEFFFFFFFFFFFFFFFFFF86
:1011C000FFFFFF2AFEE7FDC7FD83FD63FD63FD63AF
:1011D000FD00000000000000000000000063FD634F
:1011E000FD83FD83FDA5FDE7FD2AFEFFFFFFFFFF59
:1011F000FFFFFFFFFFFFFF6BFE27FE27FE27FE27F7
:10120000FE27FE27FE27FE27FE47FE47FE47FE99E4
:10121000FFFFFFFFFFFFFFFFFFFFFFFFFF99FF47FC
:10122000FE47FE47FE27FE27FE27FE27FE27FE2756
:10123000FE27FE27FE6BFEFFFFFFFFFFFFFFFFFF06
:10124000FFFFFF2AFEE7FDC5FD83FD83FD63FD6310
:10125000FD00000000000000000000000063FD83AE
:10126000FD83FD83FDA4FDE6FD29FEFFFFFFFFFFDB
:10127000FFFFFFFFFFFFFF4BFE06FE26FE26FE26BA
:10128000FE26FE26FE26FE26FE46FE46FE46FE996B
:10129000FFFFFFFFFFFFFFFFFFFFFFFFFF99FF467D
:1012A000FE46FE46FE26FE26FE26FE26FE26FE26DE
:1012B000FE26FE26FE4BFEFFFFFFFFFFFFFFFFFFA8
:1012C000FFFFFF29FEE6FDA4FD83FD83FD83FD6393
:1012D000FD00000000000000000000000003E583A6
:1012E000FD83FD83FDA3FDC5FD07FEFFFFFFFFFF9F
:1012F000FFFFFFFFFFFFFF4DFE26FE26FE26FE2618
:10130000FE26FE26FE26FE46FE46FE46FE46FE99CA
:10131000FFFFFFFFFFFFFFFFFFFFFFFFFF99FF46FC
:10132000FE46FE46FE46FE26FE26FE26FE26FE263D
:10133000FE26FE26FE4DFEFFFFFFFFFFFFFFFFFF25
:10134000FFFFFF07FEC5FDA3FDA3FD83FD83FD0396
:10135000E500000000000000000000000083CC83D6
:10136000FD83FDA3FDA3FDC4FDE5FDDEFFFFFFFF43
:10137000FFFFFFFFFFFFFF90FE25FE25FE26FE2656
:10138000FE26FE26FE26FE46FE46FE46FE46FE687B
:10139000FE89FE89FE89FE89FE89FE89FE68FE4679
:1013A000FE46FE46FE46FE26FE26FE26FE26FE26BD
:1013B000FE26FE25FE90FEFFFFFFFFFFFFFFFFFF63
:1013C000FFDEFFE5FDC4FDA3FDA3FDA3FD83FD83BB
:1013D000CC000000000000000000000000C2AB8351
:1013E000FDA3FDA3FDA3FDC3FDE4FD9AFFFFFFFFE9
:1013F000FFFFFFFFFFFFFFD6FE25FE25FE25FE2592
:10140000FE25FE25FE45FE45FE45FE45FE45FE4504
:10141000FE45FE45FE45FE45FE45FE45FE45FE45B4
:10142000FE45FE45FE45FE45FE25FE25FE25FE2524
:10143000FE25FE25FED6FEFFFFFFFFFFFFFFFFFF9D
:10144000FF9AFFE4FDC3FDA3FDA3FDA3FD83FDC241
:10145000AB000000000000000000000000E182A3DB
:10146000FDA3FDA3FDC3FDC3FDC3FD14FFFFFFFFEF
:10147000FFFFFFFFFFFFFFBEFFA4FD25FE25FE25AA
:10148000FE25FE45FE45FE45FE45FE45FE45FE4564
:10149000FE45FE45FE45FE45FE45FE45FE45FE4534
:1014A000FE45FE45FE45FE45FE45FE25FE25FE2584
:1014B000FE25FEA4FDBEFFFFFFFFFFFFFFFFFFFFB6
:1014C000FF14FFC3FDC3FDC3FDA3FDA3FDA3FDE109
:1014D00082000000000000000000000000A149A3FD
:1014E000FDA3FDC3FDC3FDC3FDC3FD8DFEFFFFFFD7
:1014F000FFFFFFFFFFFFFFFFFFECFD24FE24FE24A4
:10150000FE44FE44FE44FE44FE44FE44FE44FE44CB
:10151000FE44FE44FE44FE64FE44FE44FE44FE449B
:10152000FE44FE44FE44FE44FE44FE44FE24FE24EB
:10153000FE24FEECFDFFFFFFFFFFFFFFFFFFFFFFAD
:10154000FF8DFEC3FDC3FDC3FDC3FDA3FDA3FDA130
:10155000490000000000000000000000006010A32F
:10156000F5C3FDC3FDC3FDC3FDE3FD05FEFFFFFFA6
:10157000FFFFFFFFFFFFFFFFFF19FFA3FD24FE4456
:10158000FE44FE44FE44FE44FE44FE44FE64FE640B
:10159000FE64FE64FE64FE64FE64FE64FE64FE643B
:1015A000FE44FE44FE44FE44FE44FE44FE44FE244B
:1015B000FEA3FD19FFFFFFFFFFFFFFFFFFFFFFFF80
:1015C000FF05FEE3FDC3FDC3FDC3FDC3FDA3F56041
:1015D0001000000000000000000000000000006299
:1015E000C4C3FDC3FDC3FDE3FDE3FDE3FD56FFFF03
:1015F000FFFFFFFFFFFFFFFFFFFFFF8BF524FE4410
:10160000FE44FE44FE44FE44FE64FE64FE64FE644A
:10161000FE64FE64FE64FE64FE64FE64FE64FE64BA
:10162000FE64FE64FE44FE44FE44FE44FE44FE248A
:10163000FE8BF5FFFFFFFFFFFFFFFFFFFFFFFF56E2
:10164000FFE3FDE3FDE3FDC3FDC3FDC3FD62C40095
:101650000000000000000000000000000000008109
:101660006AC3FDC3FDE3FDE3FDE3FD03FE8BFEFF67
:10167000FFFFFFFFFFFFFFFFFFFFFF9CFF24F5447D
:10168000FE44FE44FE64FE64FE64FE64FE64FE648A
:10169000FE64FE64FE64FE64FE64FE64FE64FE643A
:1016A000FE64FE64FE64FE64FE44FE44FE44FE24CA
:1016B000F59CFFFFFFFFFFFFFFFFFFFFFFFFFF8B1B
:1016C000FE03FEE3FDE3FDE3FDC3FDC3FD816A0010
:1016D000000000000000000000000000000000808A
:1016E00018C3F5E3FDE3FDE3FD03FE03FE04FE99ED
:1016F000FFFFFFFFFFFFFFFFFFFFFFFFFFD7FE42E0
:10170000F564FE64FE64FE64FE64FE64FE64FE84B2
:10171000FE84FE84FE84FE84FE84FE84FE84FE64D9
:10172000FE64FE64FE64FE64FE64FE64FE62F5D741
:10173000FEFFFFFFFFFFFFFFFFFFFFFFFF99FF041B
:10174000FE03FE03FEE3FDE3FDE3FDC3F5801800A9
:101750000000000000000000000000000000000089
:1017600000E2A3E3FDE3FDE3FD03FE04FE04FE8AC5
:10177000FEFFFFFFFFFFFFFFFFFFFFFFFFFFFF5326
:10178000FE42F564FE64FE64FE84FE84FE84FE84F4
:10179000FE84FE84FE84FE84FE84FE84FE84FE8439
:1017A000FE84FE84FE64FE64FE64FE42F553FEFF8A
:1017B000FFFFFFFFFFFFFFFFFFFFFFFFFF8AFE04AA
:1017C000FE04FE03FEE3FDE3FDE3FDE2A3000000F3
:1017D0000000000000000000000000000000000009
:1017E000004031E3FDE3FD03FE04FE04FE24FE247D
:1017F000FE55FFFFFFFFFFFFFFFFFFFFFFFFFFFFA4
:10180000FF95FE02F563FE84FE84FE84FE84FE8462
:10181000FE84FE84FE84FE84FE84FE84FE84FE84B8
:10182000FE84FE84FE84FE63FE02F595FEFFFFFF4C
:10183000FFFFFFFFFFFFFFFFFFFFFF55FF24FE2419
:10184000FE04FE04FE03FEE3FDE3FD403100000064
:101850000000000000000000000000000000000088
:1018600000000042B403FE04FE04FE24FE24FE2415
:10187000FE45FEDCFFFFFFFFFFFFFFFFFFFFFFFF57
:10188000FFFFFF39FFE6F4A2F584FE84FEA4FEA468
:10189000FEA4FEA4FEA4FEA4FEA4FEA4FEA4FEA438
:1018A000FE84FE84FEA2F5E6F439FFFFFFFFFFFF92
:1018B000FFFFFFFFFFFFFFFFFFDCFF45FE24FE24CD
:1018C000FE24FE04FE04FE03FE42B40000000000FD
:1018D0000000000000000000000000000000000008
:1018E0000000000029E3F504FE04FE24FE24FE248B
:1018F000FE44FEAAFEFFFFFFFFFFFFFFFFFFFFFF0B
:10190000FFFFFFFFFFDFFF31FEC4F482F564FEA49A
:10191000FEA4FEA4FEA4FEA4FEA4FEA4FEA4FE64F7
:10192000FE82F5C4F431FEDFFFFFFFFFFFFFFFFF84
:10193000FFFFFFFFFFFFFFFFFFAAFE44FE24FE2480
:10194000FE24FE04FE04FEE3F50029000000000072
:101950000000000000000000000000000000000087
:101960000000000000628B04FE24FE24FE24FE44DE
:10197000FE44FE65FEEEFEFFFFFFFFFFFFFFFFFFE1
:10198000FFFFFFFFFFFFFFFFFFDFFF95FE2AF5A32D
:10199000F402F562F583F583F562F502F5A3F42A06
:1019A000F595FEDFFFFFFFFFFFFFFFFFFFFFFFFFDC
:1019B000FFFFFFFFFFFFFFEEFE65FE44FE44FE2437
:1019C000FE24FE24FE04FE628B00000000000000E6
:1019D0000000000000000000000000000000000007
:1019E0000000000000400843D524FE24FE44FE44CD
:1019F000FE44FE65FE85FE0FFFFFFFFFFFFFFFFFBA
:101A0000FFFFFFFFFFFFFFFFFFFFFFFFFFFFFFFFE6
:101A1000FF7BFFF7FEB6FEB6FEF7FE7BFFFFFFFF84
:101A2000FFFFFFFFFFFFFFFFFFFFFFFFFFFFFFFFC6
:101A3000FFFFFFFFFF0FFF85FE65FE44FE44FE44EF
:101A4000FE24FE24FE43D5400800000000000000F4
:101A50000000000000000000000000000000000086
:101A600000000000000000403103F624FE44FE4464
:101A7000FE44FE86FE86FEA6FE0DFFFEFFFFFFFF74
:101A8000FFFFFFFFFFFFFFFFFFFFFFFFFFFFFFFF66
:101A9000FFFFFFFFFFFFFFFFFFFFFFFFFFFFFFFF56
:101AA000FFFFFFFFFFFFFFFFFFFFFFFFFFFFFFFF46
:101AB000FFFEFF0DFFA6FE86FE86FE64FE44FE448A
:101AC000FE24FE03F640310000000000000000008C
:101AD0000000000000000000000000000000000006
:101AE000000000000000000000616244FE44FE446B
:101AF000FE64FE86FEA7FEA7FEC7FEEBFEBAFFFF52
:101B0000FFFFFFFFFFFFFFFFFFFFFFFFFFFFFFFFE5
:101B1000FFFFFFFFFFFFFFFFFFFFFFFFFFFFFFFFD5
:101B2000FFFFFFFFFFFFFFFFFFFFFFFFFFFFFFBA0A
:101B3000FFEBFEC7FEA7FEA7FE86FE64FE44FE4442
:101B4000FE44FE6162000000000000000000000092
:101B50000000000000000000000000000000000085
:101B60000000000000000000000000228344FE444A
:101B7000FE64FE64FEA8FEC9FEC9FEC9FEE9FE734E
:101B8000FFFEFFFFFFFFFFFFFFFFFFFFFFFFFFFF66
:101B9000FFFFFFFFFFFFFFFFFFFFFFFFFFFFFFFF55
:101BA000FFFFFFFFFFFFFFFFFFFFFFFEFF73FFE9E8
:101BB000FEC9FEC9FEC9FEA8FE64FE64FE44FE44E2
:101BC000FE22830000000000000000000000000072
:101BD0000000000000000000000000000000000005
:101BE00000000000000000000000000000A293645C
:101BF000FE64FE64FE85FECAFEEAFEEAFEEAFE0A16
:101C0000FF0CFF95FFFEFFFFFFFFFFFFFFFFFFFF42
:101C1000FFFFFFFFFFFFFFFFFFFFFFFFFFFFFFFFD4
:101C2000FFFFFFFFFFFFFFFEFF95FF0CFF0AFFEA2C
:101C3000FEEAFEEAFECAFE85FE64FE64FE64FEA2C3
:101C40009300000000000000000000000000000001
:101C50000000000000000000000000000000000084
:101C60000000000000000000000000000000004232
:101C70008364FE64FE84FEA6FEEBFE0BFF0BFF0BEF
:101C8000FF0BFF2BFF2CFF73FFB9FFFEFFFFFFFFD2
:101C9000FFFFFFFFFFFFFFFFFFFFFFFFFFFFFFFF54
:101CA000FFFEFFB9FF73FF2CFF2BFF0BFF0BFF0B9A
:101CB000FF0BFFEBFEA6FE84FE64FE64FE42830083
:101CC0000000000000000000000000000000000014
:101CD0000000000000000000000000000000000004
:101CE00000000000000000000000000000000000F4
:101CF00000816243F684FE84FEA5FE0BFF2DFF2DBE
:101D0000FF2DFF2DFF4DFF4DFF4DFF4DFF70FF9449
:101D1000FFB6FFB8FFD9FFD9FFB8FFB6FF94FF7039
:101D2000FF4DFF4DFF4DFF4DFF2DFF2DFF2DFF2DD3
:101D3000FF0BFFA5FE84FE84FE43F68162000000D7
:101D40000000000000000000000000000000000093
:101D50000000000000000000000000000000000083
:101D60000000000000000000000000000000000073
:101D70000000004031A3D584FEA4FEA4FEE8FE2DA1
:101D8000FF4EFF4EFF4EFF4EFF4EFF6EFF6EFF6E8B
:101D9000FF6EFF6EFF6EFF6EFF6EFF6EFF6EFF6EDB
:101DA000FF6EFF4EFF4EFF4EFF4EFF4EFF2DFFE832
:101DB000FEA4FEA4FEA4FEA3D54031000000000056
:101DC0000000000000000000000000000000000013
:101DD0000000000000000000000000000000000003
:101DE00000000000000000000000000000000000F3
:101DF00000000000004008A28B83F6A4FEC4FEC4CD
:101E0000FE09FF4EFF70FF70FF70FF70FF70FF90C4
:101E1000FF90FF90FF90FF90FF90FF90FF90FF706A
:101E2000FF70FF70FF70FF70FF4EFF09FFC4FEC41C
:101E3000FEA4FE83F6A28B40080000000000000014
:101E40000000000000000000000000000000000092
:101E50000000000000000000000000000000000082
:101E60000000000000000000000000000000000072
:101E70000000000000000000002029C2B4C4FEC41D
:101E8000FEE4FEE4FE06FF2AFF6DFF91FF91FF9145
:101E9000FF91FF91FF91FF91FF91FF91FF91FF91C2
:101EA000FF91FF6DFF2AFF06FFE4FEE4FEC4FEC4BF
:101EB000FEC2B42029000000000000000000000065
:101EC0000000000000000000000000000000000012
:101ED0000000000000000000000000000000000002
:101EE00000000000000000000000000000000000F2
:101EF00000000000000000000000000000603182CF
:101F0000ACC3F6E4FEE4FE04FF04FF24FF25FF4714
:101F1000FF69FF6AFF6AFF6AFF6AFF69FF47FF25E3
:101F2000FF24FF04FF04FFE4FEE4FEC3F682AC607E
:101F30003100000000000000000000000000000070
:101F40000000000000000000000000000000000091
:101F50000000000000000000000000000000000081
:101F60000000000000000000000000000000000071
:101F70000000000000000000000000000000000061
:101F800000A018017363C5E4FE04FF24FF24FF24AE
:101F9000FF44FF44FF44FF44FF44FF44FF24FF2469
:101FA000FF24FF04FFE4FE63C52173A018000000B6
:101FB0000000000000000000000000000000000021
:101FC0000000000000000000000000000000000011
:101FD0000000000000000000000000000000000001
:101FE00000000000000000000000000000000000F1
:101FF00000000000000000000000000000000000E1
:10200000000000000000006010214AA283E2AC033F
:10201000D6A3EE44FF64FF64FF44FFA3EE03D6E2C1
:10202000ACA283214A601000000000000000000004
:1020300000000000000000000000000000000000A0
:102040000000000000000000000000000000000090
:102050000000000000000000000000000000000080
:102060000000000000000000000000000000000070
:10238000000000000000004000620144022503C775
:1023900003270488048804880488042704C70325C5
:1023A0000344026201400000000000000000000041
:1023B000000000000000000000000000000000001D
:1023C000000000000000000000000000000000000D
:1023D00000000000000000000000000000000000FD
:1023E00000000000000000000000000000000000ED
:1023F00000000000000000000000000000000000DD
:102400000060000302860388048804A804A804A8C6
:1024100004A804A804A804A804A804A804A804A85C
:1024200004A80488048804860303026000000000F6
:10243000000000000000000000000000000000009C
:10244000000000000000000000000000000000008C
:10245000000000000000000000000000000000007C
:10246000000000000000000000000000000000006C
:102470000000000000000000000000000001010555
:10248000038804A804A804A80CA80C0A256E45D04B
:1024900065327653865486548653863276D0656E7E
:1024A000450A25A80CA80CA804A804880405030163
:1024B000010000000000000000000000000000001B
:1024C000000000000000000000000000000000000C
:1024D00000000000000000000000000000000000FC
:1024E00000000000000000000000000000000000EC
:1024F000000000000000000000C1004503A80CA877
:102500000CA80CC8146D45337ED7AE18BF18BF1881
:10251000BF18BF18BF18BF18BF18BF18BF18BF1803
:10252000BF18BFD7AE337E6D45C814A80CA80CA841
:102530000C4503C100000000000000000000000086
:10254000000000000000000000000000000000008B
:10255000000000000000000000000000000000007B
:10256000000000000000000000000000000000006B
:1025700000000000002000A402A80CA80CA80C0A6F
:1025800025116ED7A6F8B6F8B6F7B6F7B6F7B6F7D0
:10259000B6F7B6F7B6F7B6F7B6F7B6F7B6F7B6F7D3
:1025A000B6F7B6F7B6F8B6F8B6D7A6116E0A25A8EC
:1025B0000CA80CA80CA402200000000000000000E1
:1025C000000000000000000000000000000000000B
:1025D00000000000000000000000000000000000FB
:1025E00000000000000000000000000000000000EB
:1025F000000000E100060CA80CC80C09251176D6D5
:10260000A6D7AED7AED7AED7AED7AED7AED7AED7AA
:10261000AED7AED7AED7AED7AED7AED7AED7AED792
:10262000AED7AED7AED7AED7AED7AED7AED6A61151
:10263000760925C80CA80C060CE10000000000007B
:10264000000000000000000000000000000000008A
:10265000000000000000000000000000000000007A
:10266000000000000000000000000000000000006A
:1026700000C301A70CC814C814AE55959EB6A6B6E3
:10268000A6B6A6B6A6B6A6B6A6B6A6B6A6B6A6B66A
:10269000A6B6A6B6A6B6A6B6A6B6A6B6A6B6A6B65A
:1026A000A6B6A6B6A6B6A6B6A6B6A6B6A6B6A6B64A
:1026B000A6959EAE55C814C814A70CC3010000000F
:1026C000000000000000000000000000000000000A
:1026D00000000000000000000000000000000000FA
:1026E0000000000000000000000000000000006486
:1026F0000AC714C7140925317E959E959E959E950F
:102700009EB59EB59EB59EB59EB59EB59EB59E10D6
:102710007EEF6DEF6DEF6DEF6DEF6DEF6D107EB5D0
:102720009EB59EB59EB59EB59EB59EB59E959E9551
:102730009E959E959E317E0925C714C714640A0094
:102740000000000000000000000000000000000089
:102750000000000000000000000000000000000079
:1027600000000000000000000000000000C40AC7D4
:1027700014C7142A2D5386949694969496949694FE
:10278000969496949694969496949694969496B5D8
:10279000A6B6AEB6AEB6AEB6AEB6AEB6AEB5A6944C
:1027A00096949694969496949694969496949694D9
:1027B0009694969496949653862A2DC714C714C45B
:1027C0000A000000000000000000000000000000FF
:1027D00000000000000000000000000000000000F9
:1027E0000000000000000000000000640AC714E7B9
:1027F0001C4A355286738E738E738E738E738E73EE
:102800008E738E738E739673967396939693969C2F
:10281000E7FFFFFFFFFFFFFFFFFFFFFFFF9CE793C7
:10282000969396739673967396738E738E738E7358
:102830008E738E738E738E738E52864A35E71CC7E5
:1028400014840A00000000000000000000000000E6
:102850000000000000000000000000000000000078
:10286000000000000000000000E209E71CE71C294E
:10287000355286528652865286728E728E728E7251
:102880008E728E728E728E728E728E728E728E9C1E
:10289000E7FFFFFFFFFFFFFFFFFFFFFFFF9CE77268
:1028A0008E728E728E728E728E728E728E728E7228
:1028B0008E728E728E52865286528652862935E7E5
:1028C0001CE71CE2090000000000000000000000FE
:1028D00000000000000000000000000000000000F8
:1028E000000000000000000101C71CE71C082D309B
:1028F0007651865186518651865186518651865130
:102900008651865186518671867186718E718E9C34
:10291000E7FFFFFFFFFFFFFFFFFFFFFFFF9CE771E8
:102920008E718E718E718651865186518651865177
:102930008651865186518651865186518630760859
:102940002DE71CC71C010100000000000000000072
:102950000000000000000000000000000000000077
:1029600000000000002000461CE71C0725EE653132
:102970007E307E307E307E507E507E508650865037
:102980008650865086508650865086508650869C4B
:10299000E7FFFFFFFFFFFFFFFFFFFFFFFF9CE75089
:1029A0008650865086508650865086508650865077
:1029B000865086507E507E307E307E307E317EEE78
:1029C000650725E71C461C200000000000000000F1
:1029D00000000000000000000000000000000000F7
:1029E0000000000000C412072507258B4D3076300B
:1029F00076307E307EEE6D29452F7E307E2F7E2F05
:102A00007E4F7E4F7E4F864F864F864F864F869BEA
:102A1000DFFFFFFFFFFFFFFFFFFFFFFFFF9BDF4F1A
:102A2000864F864F864F864F864F7E4F7E2F7E2F56
:102A30007E307E2F7E2945EE6D307E307E307630C2
:102A4000768B4D07250725C412000000000000000A
:102A50000000000000000000000000000000000076
:102A6000000000E100E724072528350F6E0F760FE0
:102A7000762F76EE6DCE759CE74B550E762F7E2F1A
:102A80007E2F7E2F7E2F7E4F7E4F7E4F7E4F7E9BF2
:102A9000DFFFFFFFFFFFFFFFFFFFFFFFFF9BDF4F9A
:102AA0007E4F7E4F7E4F7E2F7E2F7E2F7E2F7E2F5E
:102AB0007E0E764B559CE7CE75EE6D2F760F760F1A
:102AC000760F6E28350725E724E10000000000009E
:102AD00000000000000000000000000000000000F6
:102AE000000000A51B0725072DAC550E6E0E6E0EBF
:102AF000760E768C65DFF7FFFF9CE74A550E762E43
:102B00007E2E7E2E7E2E7E2E7E2E7E2E7E2E7E9BF8
:102B1000DFFFFFFFFFFFFFFFFFFFFFFFFF9BDF2E3A
:102B20007E2E7E2E7E2E7E2E7E2E7E2E7E2E7E0E65
:102B3000764A559CE7FFFFDFF78C650E760E760E22
:102B40006E0E6EAC55072D0725A51B00000000007A
:102B50000000000000000000000000000000000075
:102B6000000109072D272D4835ED6D0E6E0D6E0DF8
:102B70006E6B559CE7FFFFFFFFFFFF9CE74A550D7B
:102B8000762D762D7E2D7E2D7E2D7E2D7E2D7E9B8F
:102B9000DFFFFFFFFFFFFFFFFFFFFFFFFF9BDF2DBB
:102BA0007E2D7E2D7E2D7E2D7E2D7E2D7E0D764AD8
:102BB000559CE7FFFFFFFFFFFF9CE76B550D6E0D78
:102BC0006E0E6EED6D4835272D072D0109000000B2
:102BD00000000000000000000000000000000000F5
:102BE00000641B272D272D8A4DED6DED6DED6DCB0E
:102BF00065B6AEFFFFFFFFFFFFFFFFFFFF9CE78B08
:102C0000652C762C762C762C7E2C7E2C7E2C7E9B36
:102C1000DFFFFFFFFFFFFFFFFFFFFFFFFF9BDF2C3B
:102C20007E2C7E2C7E2C7E2C7E2C762C768B659CAE
:102C3000E7FFFFFFFFFFFFFFFFFFFFB6AECB65ED36
:102C40006DED6DED6D8A4D272D272D641B00000065
:102C500000000000000000000000000000000080F4
:102C600000062D262D2635CC5DEC65EC65EC6DCD92
:102C70006DFFFFFFFFFFFFFFFFFFFFFFFFFFFF16DF
:102C8000BF2C762C762C762C762C7E2C7E2C7E9A65
:102C9000DFFFFFFFFFFFFFFFFFFFFFFFFF9ADF2CBC
:102CA0007E2C7E2C7E2C762C762C762C7616BFFFF6
:102CB000FFFFFFFFFFFFFFFFFFFFFFFFFFCD6DECFB
:102CC0006DEC65EC65CC5D2635262D062D8000006B
:102CD00000000000000000000000000000000043B1
:102CE0001226352635673DEC65EB65EB65AA5D3947
:102CF000CFFFFFFFFFFFFFFFFFFFFFFFFF7AD70BB5
:102D0000760B762B762B762B762B762B7E2B7E9A5C
:102D1000DFFFFFFFFFFFFFFFFFFFFFFFFF9ADF2B3C
:102D20007E2B7E2B762B762B762B760B760B767A7C
:102D3000D7FFFFFFFFFFFFFFFFFFFFFFFF39CFAA16
:102D40005DEB65EB65EC65673D2635263543120086
:102D5000000000000000000000000000000000056E
:102D60002446354635884DCB65EB65EB65EE75FF42
:102D7000FFFFFFFFFFFFFFFFFFFFFFDDF72C7E0AD6
:102D8000760A762A762A762A762A762A7E2A7E9AE3
:102D9000DFFFFFFFFFFFFFFFFFFFFFFFFF9ADF2ABD
:102DA0007E2A7E2A762A762A762A760A760A762C51
:102DB0007EDDF7FFFFFFFFFFFFFFFFFFFFFFFFEDE0
:102DC00075EB65EB65CB65884D46354635052400CA
:102DD000000000000000000000000000004000268D
:102DE00035463D463DA955CA65CA65CA65D6BEFF8A
:102DF000FFFFFFFFFFFFFFFFFFFFFFB1A60A760AFD
:102E0000760A762A762A762A762A76297E297E9A64
:102E1000DFFFFFFFFFFFFFFFFFFFFFFFFF9ADF293D
:102E20007E297E2A762A762A762A760A760A760AF3
:102E300076B1A6FFFFFFFFFFFFFFFFFFFFFFFFD6FB
:102E4000BECA65EA65CA65A955463D463D26354078
:102E50000000000000000000000000000082114699
:102E60003D463D663DA95DCA65CA65A95DDFFFFFB8
:102E7000FFFFFFFFFFFFFFFFFF9BE70976097609D2
:102E8000760976297629762976297E297E297E9AE1
:102E9000DFFFFFFFFFFFFFFFFFFFFFFFFF9ADF29BD
:102EA0007E297E297E297629762976097609760972
:102EB0007609769BE7FFFFFFFFFFFFFFFFFFFFDFC6
:102EC000FFA95DCA65CA65C95D663D463D463D824E
:102ED00011000000000000000000000000C31A46BE
:102EE0003D663D6645C95DC95DC9652F86FFFFFF2B
:102EF000FFFFFFFFFFFFFFFFFFB1A6087608760880
:102F000076287628762876287E287E287E287E9A3F
:102F1000DFFFFFFFFFFFFFFFFFFFFFFFFF9ADF283D
:102F20007E287E287E287E287628762876087608D1
:102F3000760876B1A6FFFFFFFFFFFFFFFFFFFFFF51
:102F4000FF2F86C965C95DC95D6645663D463DC3BF
:102F50001A000000000000000000000000A42B6622
:102F60003D66456645C95DC95DC965D5B6FFFFFFCC
:102F7000FFFFFFFFFFFFFFDEF70976087608760800
:102F80007628762876287E287E287E287E287E99B8
:102F9000DFFFFFFFFFFFFFFFFFFFFFFFFF99DF28BE
:102FA0007E287E287E287E287E2876287628760829
:102FB0007608760976DEF7FFFFFFFFFFFFFFFFFFD2
:102FC000FFD5B6C865C95DC95D664566456645A459
:102FD0002B000000000000000000000000653466C7
:102FE000456645864DC85DC85DC8655AD7FFFFFF79
:102FF000FFFFFFFFFFFFFF58D7077607760776270B
:10300000762776277E277E277E277E277E277E9936
:10301000DFFFFFFFFFFFFFFFFFFFFFFFFF99DF273E
:103020007E277E277E277E277E277E2776277607A8
:10303000760776077658D7FFFFFFFFFFFFFFFFFFFA
:10304000FF5AD7E865C865C85D864D664566456523
:1030500034000000000000000000000000053D6694
:1030600045864D864DC85DC865C765DEF7FFFFFF25
:10307000FFFFFFFFFFFFFFF2B607760776277627F1
:1030800076277E277E277E277E277E477E477E996E
:10309000DFFFFFFFFFFFFFFFFFFFFFFFFF99DF479E
:1030A0007E477E277E277E277E277E277E277627E0
:1030B0007607760776F2B6FFFFFFFFFFFFFFFFFF01
:1030C000FFDEF7C765C865C85D854D864D86450539
:1030D0003D00000000000000000000000066458682
:1030E0004D854D854DC75DC765E865FFFFFFFFFF57
:1030F000FFFFFFFFFFFFFFAE9E06762676267E26A9
:103100007E267E267E267E267E467E4686468699BC
:10311000DFFFFFFFFFFFFFFFFFFFFFFFFF99DF461E
:10312000864686467E267E267E267E267E267E262F
:103130007E26760676AE9EFFFFFFFFFFFFFFFFFFB6
:10314000FFFFFFE865C765C75DA54D854D864D66E8
:1031500045000000000000000000000000864D85D2
:103160004DA555A555C65DE7652A7EFFFFFFFFFF0C
:10317000FFFFFFFFFFFFFF6B962676267E267E264B
:103180007E267E267E467E468646864686468699EC
:10319000E7FFFFFFFFFFFFFFFFFFFFFFFF99E7468E
:1031A00086468646864686467E267E267E267E265F
:1031B0007E267E26766B96FFFFFFFFFFFFFFFFFF59
:1031C000FFFFFF2A7EE765C65DA555A555854D869F
:1031D0004D000000000000000000000000854DA52B
:1031E00055A555A555C65DE665297EFFFFFFFFFF86
:1031F000FFFFFFFFFFFFFF6A96267E257E257E25C7
:103200007E457E4586458645864586458645869922
:10321000E7FFFFFFFFFFFFFFFFFFFFFFFF99E7450E
:103220008645864586458645864586457E257E2596
:103230007E257E267E6A96FFFFFFFFFFFFFFFFFFD2
:10324000FFFFFF297EE665C65DA555A555A55585F9
:103250004D0000000000000000000000008555A5A2
:1032600055A555C55DC55DE665297EFFFFFFFFFFDE
:10327000FFFFFFFFFFFFFF6A8E257E257E457E450F
:1032800086458645864586458645866586658E994A
:10329000E7FFFFFFFFFFFFFFFFFFFFFFFF99E7656E
:1032A0008E6586458645864586458645864586459E
:1032B0007E257E257E6A8EFFFFFFFFFFFFFFFFFF5B
:1032C000FFFFFF297EE665C55DC55DA555A5558552
:1032D00055000000000000000000000000254DA582
:1032E00055C55DC55DC55DE5650776FFFFFFFFFF61
:1032F000FFFFFFFFFFFFFF8C96257E457E4586453D
:1033000086458645866486648E648E648E648E9956
:10331000E7FFFFFFFFFFFFFFFFFFFFFFFF99E764EE
:103320008E648E648E648E648644864586458645AA
:10333000864586257E8C96FFFFFFFFFFFFFFFFFF80
:10334000FFFFFF0776E565C565C55DC55DA555252C
:103350004D000000000000000000000000A444C573
:103360005DC55DC55DE565E565056EDEF7FFFFFFE3
:10337000FFFFFFFFFFFFFFB0AE4486448644864454
:10338000864486648E648E648E648E648E648E86BB
:103390009EA79EA79EA79EA79EA79EA79E869E6469
:1033A0008E648E648E648E648E648E4486448644FD
:1033B0008644864486B0AEFFFFFFFFFFFFFFFFFF9E
:1033C000FFDEF7056EE565E565C565C55DC55DA410
:1033D00044000000000000000000000000E33BC5C6
:1033E0005DC55DE565E565E56D056E9AE7FFFFFF87
:1033F000FFFFFFFFFFFFFF16C74486448644866435
:103400008E648E648E648E648E8496849684968494
:1034100096849684968496849684968496849684DC
:103420009684968496648E648E648E648E648E44D4
:10343000864486448616C7FFFFFFFFFFFFFFFFFF9E
:10344000FF9AE7056EE56DE565E565C55DC55DE37C
:103450003B000000000000000000000000E22AC560
:103460005DC565E565E56D046E046E34C7FFFFFF5D
:10347000FFFFFFFFFFFFFFDEF7E475648E648E64DD
:103480008E648E648E8496839683968396839683C9
:103490009683968396839E839E8396839683968354
:1034A000968396839683968496648E648E648E64E7
:1034B0008E648EE475DEF7FFFFFFFFFFFFFFFFFF67
:1034C000FF34C7046E046EE56DE565E565C55DE234
:1034D0002A000000000000000000000000C119C523
:1034E00065E565E56D046E046E0476ADA6FFFFFF2D
:1034F000FFFFFFFFFFFFFFFFFF4C8E648E648E63B4
:103500008E63968396839683968396839E839E830B
:103510009EA39EA39EA39EA39EA39EA39E839E83E3
:103520009E839E83968396839683968396638E630B
:103530008E648E4C8EFFFFFFFFFFFFFFFFFFFFFF3C
:10354000FFADA60476046E046EE56DE565C565C144
:10355000190000000000000000000000006000C52D
:1035600065E56D046E046E047624764686FFFFFFE3
:10357000FFFFFFFFFFFFFFFFFF59D7037E63968327
:103580009683968396839E839EA39EA39EA39EA3CB
:103590009EA39EA39EA39EA39EA39EA39EA39EA323
:1035A0009EA39EA39E839E839E839683968396630B
:1035B00096037E59D7FFFFFFFFFFFFFFFFFFFFFFCF
:1035C000FF468624760476046E046EE56DC565605C
:1035D0000000000000000000000000000000008368
:1035E00054E46D046E04762476247E247E76D7FF20
:1035F000FFFFFFFFFFFFFFFFFFFFFF2B8683968389
:1036000096839EA39EA39EA39EA39EA3A6A3A6A3CA
:10361000A6A3A6C3A6C3A6C3A6C3A6A3A6A3A6A3E2
:10362000A6A3A6A39EA39EA39EA39E839E839683EA
:10363000962B86FFFFFFFFFFFFFFFFFFFFFFFF76D9
:10364000D7247E247E24760476046EE46D835400B1
:10365000000000000000000000000000000000A2C8
:1036600032046E04760476247E247E447EABA6FF6C
:10367000FFFFFFFFFFFFFFFFFFFFFFBCEFC46DA3D6
:103680009EA39EA39EA3A6A3A6C3A6C3A6C2A6C28C
:10369000A6C2A6C2AEC2AEC2AEC2AEC2AEC2A6C2C2
:1036A000A6C3A6C3A6A3A6A3A6A39EA39EA39EC489
:1036B0006DBCEFFFFFFFFFFFFFFFFFFFFFFFFFAB53
:1036C000A6447E247E247E04760476046EA2320014
:1036D000000000000000000000000000000000806A
:1036E00008E46D04762476247E247E4486448699FC
:1036F000E7FFFFFFFFFFFFFFFFFFFFFFFF17C7E22F
:1037000075A3A6A3A6C3A6C2A6C2AEC2AEC2AEC2CF
:10371000AEC2AEC2AEE2AEE2AEC2AEC2AEC2AEC2E9
:10372000AEC2AEC2AEC2A6C3A6A3A6A3A6E275173A
:10373000C7FFFFFFFFFFFFFFFFFFFFFFFF99E7440A
:10374000864486247E247E24760476E46D800800F8
:103750000000000000000000000000000000000069
:1037600000034C2476247E247E448644866386CAE5
:10377000A6FFFFFFFFFFFFFFFFFFFFFFFFFFFFB3FE
:10378000AEE275C2A6C2AEC2AEC2AEE2AEE2AEE27A
:10379000AEE2B6E2B6E2B6E2B6E2B6E2B6E2AEE279
:1037A000AEE2AEC2AEC2AEC2AEC2A6E275B3AEFF6C
:1037B000FFFFFFFFFFFFFFFFFFFFFFFFFFCAAE633B
:1037C0008E44864486247E247E2476034C000000AA
:1037D00000000000000000000000000000000000E9
:1037E000004019247E247E448644864486638E638A
:1037F0008E75D7FFFFFFFFFFFFFFFFFFFFFFFFFFFC
:10380000FFF5B6C265C2A6E2AEE2B6E2B6E2B6E245
:10381000B6E2B6E2B6E2B6E2B6E2B6E2B6E2B6E2E8
:10382000B6E2B6E2B6E2AEC2A6C265F5B6FFFFFFEB
:10383000FFFFFFFFFFFFFFFFFFFFFF75D7638E63F3
:103840008E438644864486247E247E4119000000EF
:103850000000000000000000000000000000000068
:10386000000000635C447E44864486638E638E63FE
:1038700096A59EDCF7FFFFFFFFFFFFFFFFFFFFFFA7
:10388000FFFFFF59D7A65D4286E2B6E2B602B70255
:10389000BF02BF02BF02BF02BF02BF02BF02BF0220
:1038A000B7E2B6E2B64186A65D59D7FFFFFFFFFF3C
:1038B000FFFFFFFFFFFFFFFFFFDCF7A59E6396639F
:1038C0008E638E44864486447E635C000000000064
:1038D00000000000000000000000000000000000E8
:1038E0000000000011247E4486638E638E639683FD
:1038F000968396E9B6FEFFFFFFFFFFFFFFFFFFFF86
:10390000FFFFFFFFFFFFFFB2A6A45D217EE2B6022C
:10391000BF02BF02BF02BF02BF02BF02BF02BFE2BF
:10392000B6217EA45DB2A6FFFFFFFFFFFFFFFFFFF2
:10393000FFFFFFFFFFFFFFFEFFE9B683968396635D
:1039400096638E638E4486247E0011000000000082
:103950000000000000000000000000000000000067
:103960000000000000824B4486638E638E83968342
:1039700096A39EA39E2DC7FFFFFFFFFFFFFFFFFF44
:10398000FFFFFFFFFFFFFFFFFFFFFFF5B6EA6DA39D
:1039900055C165217E21862186217EC165A355EA18
:1039A0006DF5B6FFFFFFFFFFFFFFFFFFFFFFFFFF0C
:1039B000FFFFFFFFFFFFFF2DC7A39EA39E839683FC
:1039C00096638E638E4386824B00000000000000E9
:1039D00000000000000000000000000000000000E7
:1039E000000000000040008375638E639683968319
:1039F0009EA39EA3A6C3A62DC7FFFFFFFFFFFFFF49
:103A0000FFFFFFFFFFFFFFFFFFFFFFFFFFFFFFFFC6
:103A1000FF9BE737C716BF16BF37C79BE7FFFFFF00
:103A2000FFFFFFFFFFFFFFFFFFFFFFFFFFFFFFFFA6
:103A3000FFFFFFFFFF2DC7C3A6A3A6A39E839E8300
:103A4000968396638E83754000000000000000009E
:103A50000000000000000000000000000000000066
:103A6000000000000000004019438E83968396A357
:103A70009EA39EC4A6C4AEE4AE2BC7FEFFFFFFFF0D
:103A8000FFFFFFFFFFFFFFFFFFFFFFFFFFFFFFFF46
:103A9000FFFFFFFFFFFFFFFFFFFFFFFFFFFFFFFF36
:103AA000FFFFFFFFFFFFFFFFFFFFFFFFFFFFFFFF26
:103AB000FFFEFF2BC7E4AEC4AEC4A6A39EA39E83A5
:103AC000968396438E40190000000000000000001D
:103AD00000000000000000000000000000000000E6
:103AE000000000000000000000813A8396839EA33E
:103AF0009EA3A6C4AEE4AEE4B6E4B628C7DAF7FFE8
:103B0000FFFFFFFFFFFFFFFFFFFFFFFFFFFFFFFFC5
:103B1000FFFFFFFFFFFFFFFFFFFFFFFFFFFFFFFFB5
:103B2000FFFFFFFFFFFFFFFFFFFFFFFFFFFFFFDACA
:103B3000F728C7E4B6E4B6E4AEC4AEA3A6A39E835A
:103B40009E8396813A000000000000000000000003
:103B50000000000000000000000000000000000065
:103B60000000000000000000000000614BA39EA3C5
:103B70009EA3A6C3A6E5B6E5B605BF05BF25C791BA
:103B8000DFFEFFFFFFFFFFFFFFFFFFFFFFFFFFFF66
:103B9000FFFFFFFFFFFFFFFFFFFFFFFFFFFFFFFF35
:103BA000FFFFFFFFFFFFFFFFFFFFFFFEFF91DF258E
:103BB000C705BF05BFE5B6E5B6C3A6A3A6A39EA3EA
:103BC0009E614B00000000000000000000000000AB
:103BD00000000000000000000000000000000000E5
:103BE00000000000000000000000000000E15BA3F6
:103BF000A6C3A6C2AEE3AE06BF06BF26C726C7252C
:103C0000C747CFB3E7FEFFFFFFFFFFFFFFFFFFFF49
:103C1000FFFFFFFFFFFFFFFFFFFFFFFFFFFFFFFFB4
:103C2000FFFFFFFFFFFFFFFEFFB3E747CF25C726DC
:103C3000C726C706BF06BFE3AEC2AEC3A6A3A6E1B2
:103C40005B00000000000000000000000000000019
:103C50000000000000000000000000000000000064
:103C600000000000000000000000000000000061F3
:103C700053C2A6C2AEE2AEE3B627C727C726CF46D9
:103C8000CF46CF46D767D78FE7D8F7FEFFFFFFFFB6
:103C9000FFFFFFFFFFFFFFFFFFFFFFFFFFFFFFFF34
:103CA000FFFEFFD8F78FE767D746D746CF46CF2628
:103CB000CF27C727C703B7E2AEC2AEC2A661530083
:103CC00000000000000000000000000000000000F4
:103CD00000000000000000000000000000000000E4
:103CE00000000000000000000000000000000000D4
:103CF00000A142A2A6E2B6E2B603BF27C748CF485A
:103D0000D747D767D767DF67DF87DF87E7ACEFD0B5
:103D1000EFD3F7D6F7D6F7D6F7D6F7D3F7D0EFAC81
:103D2000EF87E787DF87DF67DF67D767D748D74841
:103D3000CF27C703BFE2B6E2B6A2A6A142000000A9
:103D40000000000000000000000000000000000073
:103D50000000000000000000000000000000000063
:103D60000000000000000000000000000000000053
:103D70000000006021E29DE2B602BF02BF25CF68CD
:103D8000D769D769DF88DF88DF88E788E7A8E7A8F1
:103D9000EFA8EFA8EFA8EFA8EFA8EFA8EFA8EFA86B
:103DA000E788E788E788DF88DF69DF69D768D72594
:103DB000CF02BF02BFE2B6E29D602100000000001A
:103DC00000000000000000000000000000000000F3
:103DD00000000000000000000000000000000000E3
:103DE00000000000000000000000000000000000D3
:103DF00000000000004008E163E2BE02BF21C722CC
:103E0000CF45D768DF8AE78AE7AAE7AAEFAAEFA932
:103E1000EFA9EFC9EFC9F7C9F7C9EFC9EFA9EFAA31
:103E2000EFAAEFAAE78AE78AE768DF45D722CF2122
:103E3000C702BFE2BEE163400800000000000000CE
:103E40000000000000000000000000000000000072
:103E50000000000000000000000000000000000062
:103E60000000000000000000000000000000000052
:103E70000000000000000000004021018D21C7214A
:103E8000CF41CF41D763DF86DFA8E7AAEFABEFCB07
:103E9000F7CBF7CBF7CBF7CBF7CBF7CBF7CBF7AB32
:103EA000EFAAEFA8E786E763DF41D741CF41CF21F3
:103EB000C7018D402100000000000000000000004C
:103EC00000000000000000000000000000000000F2
:103ED00000000000000000000000000000000000E2
:103EE00000000000000000000000000000000000D2
:103EF000000000000000000000000000008029E138
:103F00008C21CF61D761D761DF81DF80E7A2EFA38A
:103F1000EFC4F7C5F7C5F7C5F7C5F7C4F7A3EFA218
:103F2000EF80E781DF61DF61D761D721CFE18C804E
:103F30002900000000000000000000000000000058
:103F40000000000000000000000000000000000071
:103F50000000000000000000000000000000000061
:103F60000000000000000000000000000000000051
:103F70000000000000000000000000000000000041
:103F800000A010405BC0A561DF80E780E7A0EFA044
:103F9000EFC0F7C0F7C0F7C0F7C0F7C0F7A0EFA0B9
:103FA000EFA0E780E761DFC0A5405BA01000000044
:103FB0000000000000000000000000000000000001
:103FC00000000000000000000000000000000000F1
:103FD00000000000000000000000000000000000E1
:103FE00000000000000000000000000000000000D1
:103FF00000000000000000000000000000000000C1
:104000000000000000000080084042E07340A5600E
:10401000C620E7C0F7E0FFE0FFC0F720E760C6403A
:10402000A5E073404280080000000000000000008E
:104030000000000000000000000000000000000080
:104040000000000000000000000000000000000070
:104050000000000000000000000000000000000060
:104060000000000000000000000000000000000050
:104070000000000000000000000000000000000040
:104080000000000000000000000000000000000030
:104090000000000000000000000000000000000020
:1040A0000000000000000000000000000000000010
:1040B0000000000000000000000000000000000000
:1040C00000000000000000000000000000000000F0
:1040D00000000000000000000000000000000000E0
:1040E00000000000000000000000000000000000D0
:1040F00000000000000000000000000000000000C0
:1041000000000000000000000000000000000000AF
:10411000000000000000000000000000000000009F
:10412000000000000000000000000000000000008F
:10413000000000000000000000000000000000007F
:10414000000000000000000000000000000000006F
:10415000000000000000000000000000000000005F
:10416000000000000000000000000000000000004F
:10417000000000000000000000000000000000003F
:10418000000000000000000000000000000000002F
:10419000000000000000000000000000000000001F
:1041A000000000000000000000000000000000000F
:1041B00000000000000000000000000000000000FF
:1041C00000000000000000000000000000000000EF
:1041D00000000000000000000000000000000000DF
:1041E00000000000000000000000000000000000CF
:1041F000000000000000000000A010E0512083201B
:10420000B4C0D460E580F580F560E5C0D420B4206A
:1042100083E051A01000000000000000000000003A
:10422000000000000000000000000000000000008E
:10423000000000000000000000000000000000007E
:10424000000000000000000000000000000000006E
:104250000000006018606A60BCA0F5C0FDE0FDE0F1
:10426000FDE0FDE0FDE0FDE0FDE0FDE0FDE0FDE066
:10427000FDC0FDA0F560C4606A6008000000000099
:10428000000000000000000000000000000000002E
:10429000000000000000000000000000000000001E
:1042A000000000000000000000000000000000A06E
:1042B00010208B80EDC0FDE0FDE0FDE0FDE0FDE0C5
:1042C000FDE0FDE0FDE0FDE0FDE0FDE0FDE0FDE006
:1042D000FDE0FDE0FDE0FDC0FD80ED208BA01000C5
:1042E00000000000000000000000000000000000CE
:1042F000000000000000000000000000F800F800CE
:10430000F800F800F800F800F800000000A0728043
:10431000EDC0FDE0FDE0FDE0FDE0FDE0FDE0FDE0E5
:10432000FDE0FDE0FDE0FDE0FDE0FDE0FDE0FDE0A5
:10433000FDE0FDE0FDE0FDE0FDE0FDC0FD80EDA065
:1043400072000000000000000000000000000000FB
:10435000000000000000000000000000F800F8006D
:10436000F800F800F800F800F8E02880C4C0FDE08C
:10437000FDE0FDE0FDE0FDE0FDE0FDE0FDE0FDE055
:10438000FDE0FDE0FDE0FDE0FDE0FDE0FDE0FDE045
:10439000FDE0FDE0FDE0FDE0FDE0FDE0FDE0FDC055
:1043A000FD80C4E0280000000000000000000000C4
:1043B00000000000000000000000000000000000FD
:1043C0000000F800F800F8C04960EDE0FDE0FDE015
:1043D000FDE0FDE0FDE0FDE0FDE0FDE0FDE0FDE0F5
:1043E000FDE0FDE0FDE0FDE0FDE0FDE0FDE0FDE0E5
:1043F000FDE0FDE0FDE0FDE0FDE0FDE0FDE0FDE0D5
:10440000FDE0FD60EDC0490000000000000000007C
:10441000000000000000000000000000000000009C
:10442000F800F800F8606AC0FDE0FDE0FDE0FDE0A6
:10443000FDE0FDE0FDE0FDE0FDE0FDE0FDE0FDE094
:10444000FDE0FDE0FDE0FDE0FDE0FDE0FDE0FDE084
:10445000FDE0FDE0FDE0FDE0FDE0FDE0FDE0FDE074
:10446000FDE0FDE0FDC0FD60620000000000000016
:104470000000000000000000000000000000F80044
:10448000F800F8606AC0FDE0FDE0FDE0FDE0FDE061
:10449000FDE0FDE0FDE0FDE0FDE0FDE0FDE0FDE034
:1044A000FDE0FDE0FDE0FDE0FDE0FDE0FDE0FDE024
:1044B000FDE0FDE0FDE0FDE0FDE0FDE0FDE0FDE014
:1044C000FDE0FDE0FDE0FDC0FD606A0000000000D1
:1044D000000000000000000000000000F800F800EC
:1044E000F80052C0FDE0FDE0FDE0FDE0FDE0FDE094
:1044F000FDE0FDE0FDE0FDE0FDE0FDE0FDE0FDE0D4
:10450000FDE0FDE0FDE0FDE0FDE0FDE0FDE0FDE0C3
:10451000FDE0FDE0FDE0FDE0FDE0FDE0FDE0FDE0B3
:10452000FDE0FDE0FDE0FDE0FDC0FDE04900000034
:1045300000000000000000000000F800F800F80093
:10454000F8E0FDE0FDE0FDE0FDE0FDE0FDE0FDE088
:10455000FDE0FDE0FDE0FDE0FDE0FDE0FDE0FDE073
:10456000FDE0FDE0FDE0FDE0FDE0FDE0FDE0FDE063
:10457000FDE0FDE0FDE0FDE0FDE0FDE0FDE0FDE053
:10458000FDE0FDE0FDE0FDE0FDE0FD80ED00290047
:1045900000000000000000000000F800F800F80033
:1045A000F800F800F800F800F8E0FDE0FD00F80081
:1045B000F800F800F800F8E0FDE0FDE0FDE0FDE0C7
:1045C000FDE0FDE0FDE0FDE0FDE0FDE0FDE0FDE003
:1045D000FDE0FDE0FDE0FDE0FDE0FDE0FDE0FDE0F3
:1045E000FDE0FDE0FDE0FDE0FDE0FDE0FDA0CC0034
:1045F00000000000000000000000F800F800F800D3
:10460000F800F800F800F800F8E0FDE0FDE0FDE05B
:10461000FD00F800F8E0FDE0FDE0FDE0FDE0FDE07C
:10462000FDE0FDE0FDE0FDE0FDE0FDE0FDE0FDE0A2
:10463000FDE0FDE0FDE0FDE0FDE0FDE0FDE0FDE092
:10464000FDE0FDE0FDE0FDE0FDE0FDE0FDC0FDC0C2
:104650007A00000000000000000000C018A0F5E093
:10466000FDE0FDE0FDE0FDE0FDE0FDE0FDC0FD0062
:10467000F800F8E0FDE0FDE0FDE0FDE0FDE0FDE03C
:10468000FDE0FDE0FDE0FDE0FDE0FDE0FDE0FDE042
:10469000FDE0FDE0FDE0FDE0FDE0FDE0FDE0FDE032
:1046A000FDE0FDE0FDE0FDE0FDE0FDE0FDE0FD8082
:1046B000F5801800000000000000006093C0FDE0DD
:1046C000FDE0FDE0FDE0FDE0FDE0FDC0FD00F800E7
:1046D000F8E0FDE0FDE0FDE0FDE0FDE0FDE0FDE0F7
:1046E000FDE0FDE0FDE0FDE0FDE0FDE0FDE0FDE0E2
:1046F000FDE0FDE0FDE0FDE0FDE0FDE0FDE0FDE0D2
:10470000FDE0FDE0FDE0FDE0FDE0FDE0FDE0FDE0C1
:10471000FD6093000000000000801880EDE0FDE0E7
:10472000FDE0FDE0FDE0FDE0FDE0FDE0FD00F80066
:10473000F800F800F800F8C0FDE0FDE0FDE0FDE065
:10474000FDE0FDE0FDE0FDE0FDE0FDE0FDE0FDE081
:10475000FDE0FDE0FDE0FDE0FDE0FDE0FDE0FDE071
:10476000FDE0FDE0FDE0FDE0FDE0FDE0FDE0FDE061
:10477000FD80F5A01000000000A072C0FDE0FDE08B
:10478000FDE0FDE0FDE0FDE0FDE0FDE0FDE0FDE041
:10479000FDE0FDE0FDE0FDC0FDE0FDE0FDE0FDE051
:1047A000FDE0FDE0FDE0FDE0FDE0FDE0FDE0FDE021
:1047B000FDE0FDE0FDE0FDE0FDE0FDE0FDE0FDE011
:1047C000FDE0FDE0FDE0FDE0FDE0FDE0FDE0FDE001
:1047D000FDC0FDA07200000000A0CCE0FDE0FDE007
:1047E000FDE0FDE0FDE0FDE0FDE0FDE0FDE0FDE0E1
:1047F000FDE0FDE0FDE0FDE0FDE0FDE0FDE0FDE0D1
:10480000FDE0FDE0FDE0FDE0FDE0FDE0FDE0FDE0C0
:10481000FDE0FDE0FDE0FDE0FDE0FDE0FDE0FDE0B0
:10482000FDE0FDE0FDE0FDE0FDE0FDE0FDE0FDE0A0
:10483000FDE0FDA0CC0000A020C0FDE0FDE0FDE01B
:10484000FDE0FDE0FDE0FDE0FDE0FDE0FDE0FDE080
:10485000FDE0FDE0FDE0FDE0FDE0FDE0FDE0FDE070
:10486000FDE0FDE0FDE0FDE0FDE0FDE0FDE0FDE060
:10487000FDE0FDE0FDE0FDE0FDE0FDE0FDE0FDE050
:10488000FDE0FDE0FDE0FDE0FDE0FDE0FDE0FDE040
:10489000FDE0FDC0FDA018205AE0FDE0FDE0FDE0D8
:1048A000FDE0FDE0FDE0FDE0FDE0FDE0FDE0FDE020
:1048B000FDE0FDE0FDE0FDE0FDE0FDE0FDE0FDE010
:1048C000FDE0FDE0FDE0FDE0FDE0FDE0FDE0FDE000
:1048D000FDE0FDE0FDE0FDE0FDE0FDE0FDE0FDE0F0
:1048E000FDE0FDE0FDE0FDE0FDE0FDE0FDE0FDE0E0
:1048F000FDE0FDE0FD205A6093E0FDE0FDE0FDE01D
:10490000FDE0FDE0FDE0FDE0FDE0FDE0FDE0FDE0BF
:10491000FDE0FDE0FDE0FDE0FDE0FDE0FDE0FDE0AF
:10492000FDE0FDE0FDE0FDE0FDE0FDE0FDE0FDE09F
:10493000FDE0FDE0FDE0FDE0FDE0FDE0FDE0FDE08F
:10494000FDE0FDE0FDE0FDE0FDE0FDE0FDE0FDE07F
:10495000FDE0FDE0FD609380C4E0FDE0FDE0FDE0F2
:10496000FDE0FDE0FDE0FDE0FDE0FDE0FDE0FDE05F
:10497000FDE0FDE0FDE0FDE0FDE0FDE0FDE0FDE04F
:10498000FDE0FDE0FDE0FDE0FDE0FDE0FDE0FDE03F
:10499000FDE0FDE0FDE0FDE0FDE0FDE0FDE0FDE02F
:1049A000FDE0FDE0FDE0FDE0FDE0FDE0FDE0FDE01F
:1049B000FDE0FDE0FD60BC40E5E0FDE0FDE0FDE088
:1049C000FDE0FDE0FDE0FDE0FDE0FDE0FDE0FDE0FF
:1049D000FDE0FDE0FDE0FDE0FDE0FDE0FDE0FDE0EF
:1049E000FDE0FDE0FDE0FDE0FDE0FDE0FDE0FDE0DF
:1049F000FDE0FDE0FDE0FDE0FDE0FDE0FDE0FDE0CF
:104A0000FDE0FDE0FDE0FDE0FDE0FDE0FDE0FDE0BE
:104A1000FDE0FDE0FD20E5C0F5E0FDE0FDE0FDE0AE
:104A2000FDE0FDE0FDE0FDE0FDE0FDE0FDE0FDE09E
:104A3000FDE0FDE0FDE0FDE0FDE0FDE0FDE0FDE08E
:104A4000FDE0FDE0FDE0FDE0FDE0FDE0FDE0FDE07E
:104A5000FDE0FDE0FDE0FDE0FDE0FDE0FDE0FDE06E
:104A6000FDE0FDE0FDE0FDE0FDE0FDE0FDE0FDE05E
:104A7000FDE0FDE0FDC0F5E0FDE0FDE0FDE0FDE076
:104A8000FDE0FDE0FDE0FDA0F5C0CCC0CCC0CCC099
:104A9000CCC0CCC0CCC0CCC0CCC0CC20DDE0FDE0D4
:104AA000FDE0FDE0FDE0FDE0FDE0FDE0FDE0FDE01E
:104AB000FDE0D4C0CCC0CCC0CCC0CCC0CCC0CCC03D
:104AC000CCC0CCC0D4C0FDE0FDE0FDE0FDE0FDE0E9
:104AD000FDE0FDE0FDE0FDE0FDE0FDE0FDE0FDE0EE
:104AE000FDE0FDE0FDC0F500290000000000000031
:104AF00000000000000000000000000000E0ABE04B
:104B0000FDE0FDE0FDE0FDE0FDE0FDE0FDE0FDC0DD
:104B10007200000000000000000000000000000023
:104B20000000000000005AE0FDE0FDE0FDE0FDE0D7
:104B3000FDE0FDE0FDE0FDC0FDE0FDE0FDE0FDE0AD
:104B4000FDE0FDE0FD80F5601000000000000000C9
:104B5000000000000000000000000000000083E0F2
:104B6000FDE0FDE0FDE0FDE0FDE0FDE0FDE0FDE05D
:104B700051000000000000000000000000000000E4
:104B800000000000002031E0FDE0FDE0FDE0FDE080
:104B9000FDE0FDE0FDC0FD40E5E0FDE0FDE0FDE005
:104BA000FDE0FDE0FDE0FD60BCC07AC07AC07AC0E7
:104BB0007AC07AC07AC07AC07AC07A208BA0F5E039
:104BC000FDE0FDE0FDE0FDE0FDE0FDE0FDE0FD409D
:104BD000E5E082C07AC07AC07AC07AC07AC07AC072
:104BE0007AC07AE07AE0D4E0FDE0FDE0FDE0FDE0AF
:104BF000FDE0FDE0FD40E580C4E0FDE0FDE0FDE01E
:104C0000FDE0FDE0FDE0FDE0FDE0FDE0FDE0FDE0BC
:104C1000FDE0FDE0FDE0FDE0FDE0FDE0FDE0FDE0AC
:104C2000FDE0FDE0FDE0FDE0FDE0FDE0FDE0FDE09C
:104C3000FDE0FDE0FDE0FDE0FDE0FDE0FDE0FDE08C
:104C4000FDE0FDE0FDE0FDE0FDE0FDE0FDE0FDE07C
:104C5000FDE0FDE0FD80C4A09BE0FDE0FDE0FDE0A7
:104C6000FDE0FDE0FDE0FDE0FDE0FDE0FDE0FDE05C
:104C7000FDE0FDE0FDE0FDE0FDE0FDE0FDE0FDE04C
:104C8000FDE0FDE0FDE0FDE0FDE0FDE0FDE0FDE03C
:104C9000FDE0FDE0FDE0FDE0FDE0FDE0FDE0FDE02C
:104CA000FDE0FDE0FDE0FDE0FDE0FDE0FDE0FDE01C
:104CB000FDE0FDE0FD809B6062E0FDE0FDE0FDE0E9
:104CC000FDE0FDE0FDE0FDE0FDE0FDE0FDE0FDE0FC
:104CD000FDE0FDE0FDE0FDE0FDE0FDE0FDE0FDE0EC
:104CE000FDE0FDE0FDE0FDE0FDE0FDE0FDE0FDE0DC
:104CF000FDE0FDE0FDE0FDE0FDE0FDE0FDE0FDE0CC
:104D0000FDE0FDE0FDE0FDE0FDE0FDE0FDE0FDE0BB
:104D1000FDE0FDE0FD6062E028E0FDE0FDE0FDE09B
:104D2000FDE0FDE0FDE0FDE0FDE0FDE0FDE0FDE09B
:104D3000FDE0FDE0FDE0FDE0FDE0FDE0FDE0FDE08B
:104D4000FDE0FDE0FDE0FDE0FDE0FDE0FDE0FDE07B
:104D5000FDE0FDE0FDE0FDE0FDE0FDE0FDE0FDE06B
:104D6000FDE0FDE0FDE0FDE0FDE0FDE0FDE0FDE05B
:104D7000FDE0FDC0FDE0200000E0D4E0FDE0FDE04E
:104D8000FDE0FDE0FDE0FDE0FDE0FDE0FDE0FDE03B
:104D9000FDE0FDE0FDE0FDE0FDE0FDE0FDE0FDE02B
:104DA000FDE0FDE0FDE0FDE0FDE0FDE0FDE0FDE01B
:104DB000FDE0FDE0FDE0FDE0FDE0FDE0FDE0FDE00B
:104DC000FDE0FDE0FDE0FDE0FDE0FDE0FDE0FDE0FB
:104DD000FDE0FDE0D4000000000083E0FDE0FDE028
:104DE000FDE0FDE0FDE0FDE0FDE0FDE0FDE0FDE0DB
:104DF000FDE0FDE0FDE0FDE0FDE0FDE0FDE0FDE0CB
:104E0000FDE0FDE0FDE0FDE0FDE0FDE0FDE0FDE0BA
:104E1000FDE0FDE0FDE0FDE0FDE0FDE0FDE0FDE0AA
:104E2000FDE0FDE0FDE0FDE0FDE0FDE0FDE0FDE09A
:104E3000FDE0FDE07A00000000E020A0F5E0FDE0EC
:104E4000FDE0FDE0FDE0FDE0FDE0FDE0FDE0FDE07A
:104E5000FDE0FDE0FDE0FDE0FDE0FDE0FDE0FDE06A
:104E6000FDE0FDE0FDE0FDE0FDE0FDE0FDE0FDE05A
:104E7000FDE0FDE0FDE0FDE0FDE0FDE0FDE0FDE04A
:104E8000FDE0FDE0FDE0FDE0FDE0FDE0FDE0FDE03A
:104E9000FDA0F5E020000000000000C0A3E0FDE060
:104EA000FDE0FDE0FDE0FDE0FDE0FDE0FDE0FDE01A
:104EB000FDE0FDE0FDE0FDE0FDE0FDE0FDE0FDE00A
:104EC000FDE0FDE0FDE0FDE0FDE0FDE0FDE0FDE0FA
:104ED000FDE0FDE0FDE0FDE0FDE0FDE0FDE0FDE0EA
:104EE000FDE0FDE0FDE0FDE0FDE0FDE0FDE0FDE0DA
:104EF000FDC0A30000000000000000E028C0F5E0B5
:104F0000FDE0FDE0FDE0FDE0FDE0FDE0FDE0FDE0B9
:104F1000FDE0FDE0FDE0FDE0FDE0FDE0FDE0FDE0A9
:104F2000FDE0FDE0FDE0FDE0FDE0FDE0FDE0FDE099
:104F3000FDE0FDE0FDE0FDE0FDE0FDE0FDE0FDE089
:104F4000FDE0FDE0FDE0FDE0FDE0FDE0FDE0FDC099
:104F5000F5E02800000000000000000000408BE0A9
:104F6000FDE0FDE0FDE0FDE0FDE0FDE0FDE0FDE059
:104F7000FDE0FDE0FDE0FDE0FDE0FDE0FDE0FDE049
:104F8000FDE0FDE0FDE0FDE0FDE0FDE0FDE0FDE039
:104F9000FDE0FDE0FDE0FDE0FDE0FDE0FDE0FDE029
:104FA000FDE0FDE0FDE0FDE0FDE0FDE0FDE0FD40B9
:104FB0008B000000000000000000000000600800FE
:104FC000DDE0FDE0FDE0FDE0FDE0FDE0FDE0FDE019
:104FD000FDE0FDE0FDE0FDE0FDE0FDE0FDE0FDE0E9
:104FE000FDE0FDE0FDE0FDE0FDE0FDE0FDE0FDE0D9
:104FF000FDE0FDE0FDE0FDE0FDE0FDE0FDE0FDE0C9
:10500000FDE0FDE0FDE0FDE0FDE0FDE0FD00DD6038
:105010000800000000000000000000000000008008
:1050200041A0F5E0FDE0FDE0FDE0FDE0FDE0FDE09C
:10503000FDE0FDE0FDE0FDE0FDE0FDE0FDE0FDE088
:10504000FDE0FDE0FDE0FDE0FDE0FDE0FDE0FDE078
:10505000FDE0FDE0FDE0FDE0FDE0FDE0FDE0FDE068
:10506000FDE0FDE0FDE0FDE0FDE0FDA0F5603900C4
:105070000000000000000000000000000000000030
:1050800000806AE0FDE0FDE0FDE0FDE0FDE0FDE028
:10509000FDE0FDE0FDE0FDE0FDE0FDE0FDE0FDE028
:1050A000FDE0FDE0FDE0FDE0FDE0FDE0FDE0FDE018
:1050B000FDE0FDE0FDE0FDE0FDE0FDE0FDE0FDE008
:1050C000FDE0FDE0FDE0FDE0FDE0FD606A000000C8
:1050D00000000000000000000000000000000000D0
:1050E0000000002083C0FDE0FDE0FDE0FDE0FDE00C
:1050F000FDE0FDE0FDE0FDE0FDE0FDE0FDE0FDE0C8
:10510000FDE0FDE0FDE0FDE0FDE0FDE0FDE0FDE0B7
:10511000FDE0FDE0FDE0FDE0FDE0FDE0FDE0FDE0A7
:10512000FDE0FDE0FDE0FDE0FD008300000000008B
:10513000000000000000000000000000000000006F
:105140000000000000208BE0FDE0FDE0FDE0FDE060
:10515000FDE0FDE0FDE0FDE0FDE0FDE0FDE0FDE067
:10516000F4A0DA40D220D220D220D260DAC0E3E02C
:10517000FDE0FDE0FDE0FDE0FDE0FDE0FDE0FDE047
:10518000FDE0FDE0FDE0FD208300000000000000E8
:10519000000000000000000000000000000000000F
:1051A00000000000000000806AC0F5E0FDE0FDE0C6
:1051B000FDE0FDE0FDE0FDE0FDE0FDE0FDE0FD00E7
:1051C000EC20B800B800B800B800B800B8E0D1E0F2
:1051D000FDE0FDE0FDE0FDE0FDE0FDE0FDE0FDE0E7
:1051E000FDE0FDC0F5806A00000000000000000046
:1051F00000000000000000000000000000000000AF
:10520000000000000000000000804120DDE0FDE023
:10521000FDE0FDE0FDE0FDE0FDE0FDE0FDE0FDE0A6
:10522000FD00F560E3A0DAA0DA00DB60ECC0FDE091
:10523000FDE0FDE0FDE0FDE0FDE0FDE0FDE0FDE086
:10524000FD20DD80410000000000000000000000A3
:10525000000000000000000000000000000000004E
:10526000000000000000000000000060186093C013
:10527000FDE0FDE0FDE0FDE0FDE0FDE0FDE0FDE046
:10528000FDE0FDE0FDE0FDE0FDE0FDE0FDE0FDE036
:10529000FDE0FDE0FDE0FDE0FDE0FDE0FDC0F580AE
:1052A0009360080000000000000000000000000003
:1052B00000000000000000000000000000000000EE
:1052C00000000000000000000000000000000020BE
:1052D00029E0ABC0F5E0FDE0FDE0FDE0FDE0FDE034
:1052E000FDE0FDE0FDE0FDE0FDE0FDE0FDE0FDE0D6
:1052F000FDE0FDE0FDE0FDE0FDC0F5E0AB202900B4
:10530000000000000000000000000000000000009D
:10531000000000000000000000000000000000008D
:10532000000000000000000000000000000000007D
:10533000000000E028208B20DDE0FDE0FDE0FDE046
:10534000FDE0FDE0FDE0FDE0FDE0FDE0FDE0FDE075
:10535000FDE0FDE0FD20DD408BE0280000000000C6
:10536000000000000000000000000000000000003D
:10537000000000000000000000000000000000002D
:10538000000000000000000000000000000000001D
:105390000000000000000000002031A072E0ABE03F
:1053A000D4A0F5E0FDE0FDE0FDE0FDA0F5E0D4E0F7
:1053B000ABA07220310000000000000000000000DF
:1053C00000000000000000000000000000000000DD
:1053D00000000000000000000000000000000000CD
:1053E00000000000000000000000000000000000BD
:1053F00000000000000000000000000000000000AD
:10540000000000000000000000000000000000009C
:10541000000000000000000000000000000000008C
:10542000000000000000000000000000000000007C
:10543000000000000000000000000000000000006C
:10544000000000000000000000000000000000005C
:1054500000000000000000000000000000610804DF
:1054600021E7398A52CB5ACB5A494AA631E3182050
:10547000000000000000000000000000000000002C
:10548000000000000000000000000000000000001C
:10549000000000000000000000000000000000000C
:1054A00000000000000000000000000000000000FC
:1054B000000000000000008210494A34A5D7BD5901
:1054C000CEBAD61CE73CE73CE7FBDE9AD618C6B658
:1054D000B5518C8631200000000000000000000063
:1054E00000000000000000000000000000000000BC
:1054F00000000000000000000000000000000000AC
:10550000000000000000000000000000000000009B
:10551000008210A631B2947DEFBEF7DFFFDEF7DD2B
:10552000EFDCE7DBDFDBDFBBDFBBDFBCE7BDEFBE14
:10553000F79EF77DEF79CE8E734529410800000074
:10554000000000000000000000000000000000005B
:10555000000000000000000000000000000000004B
:105560000000000000000000000000000000000833
:105570004214A55DEFDFFFFEF7DAD7D5AFB297B0E3
:10558000878E778D6F8C676C676D6F6E77708773A2
:105590009F96B79BDFBEF7BEF79AD6CF7B2421003C
:1055A00000000000000000000000000000000000FB
:1055B00000000000000000000000000000000000EB
:1055C00000000000000000000000004108AE73BAB7
:1055D000D6DFFFFFFFD8C7D087AE77AC67AC678C4C
:1055E000678C678C678C676C676C676C674B5F4B0D
:1055F0005F4C674D6F518F9AD7BEF75DEF18C608A5
:105600004200000000000000000000000000000058
:10561000000000000000000000000000000000008A
:10562000000000000000000000652996B5BEF7DE0E
:10563000F7D9CFCF7FCC67AC67AC67AC678C678C92
:10564000678C678C676C676C676C676C674C674CC2
:10565000674C672B5F2B5F0A57518F9AD79DEF1CC2
:10566000E7EF7BA210000000000000000000000037
:10567000000000000000000000000000000000002A
:1056800000000000000000C73959CEFFFFFDEFD336
:105690009FCC67CC67AC67AC67AC678C678C678C5A
:1056A000678C676C676C676C674C674C674C674CC2
:1056B000672B5F2B5F2B5F2B5F0A570C6754A79DEF
:1056C000EF5DEFF39CA2100000000000000000005E
:1056D00000000000000000000000000000000000CA
:1056E0000000000000C73938C6DFFFFBDFD087CCE1
:1056F00067CC67AC67AC67AC678C678C678C676C92
:10570000676C676C676C674C674C674C674B5F2BCB
:105710005F2B5F2B5F0B5F0B5F0B5F0B5FEA5632FC
:10572000979DEF7DEFB2946108000000000000003B
:105730000000000000000000000000000000000069
:10574000000000652959CEDFFFFAD7CE77CC67ACD1
:1057500067AC67AC67AC678C678C678C676C67B845
:10576000C7BCE7BCE7BCE7BCE7BCE7BCE7518F2B95
:105770005F2B5F0B5F0B5F0B5F0B5F0B5FEB5ECA1B
:105780005610877BDF5DEF718C82100000000000F7
:105790000000000000000000000000000000000009
:1057A00000410896B5FFFFFBDFCE77CC67AC67AC56
:1057B00067AC678C678C678C678C676C676C67BA43
:1057C000D7DFFFDFFFDFFFDFFFDFFFBEF772972BC3
:1057D0005F0B5F0B5F0B5F0B5FEB5EEB5EEB5EEBFC
:1057E0005EC94EEF7E7CE73CE7AE73000000000030
:1057F00000000000000000000000000000000000A9
:1058000000AE73BEF7FDEFD087CC67AC67AC67AC7A
:10581000678C678C678C678C676B5F6B5F6C67BA34
:10582000D7DFFFDFFFDFFFDFFFBEF7BEF752970BCB
:105830005F0B5F0B5F0B5FEB5EEB5EEB5EEB5ECBDC
:105840005ECA56A94E12977DEFDBDE652900000087
:105850000000000000000000000000000000000840
:1058600042BAD6DEF7D39FCC67AC67AC67AC678C27
:10587000678C678B5F8B5F6B5F6B5F6B5F6C67B910
:10588000CFDFFFDFFFDFFFBEF7BEF7BEF752970B9C
:105890005F0B5F0B5FEB5EEB5EEA56EA56CA56CAD9
:1058A00056CA56CA56A94E36B75DEFB6B5A2100015
:1058B0000000000000000000000000000082101442
:1058C000A5DFFFD9CFCC67AC67AC67AC678B5F8BCC
:1058D0005F8B5F8B5F6B5F6B5F6B5F4B5F4C67B921
:1058E000CFDFFFDFFFBEF7BEF7BEF7BEF752970B65
:1058F0005FEB5EEB5EEA56EA56EA56CA56CA56CAED
:1059000056CA56AA56AA56AD6E5AD71CE7EB5A206D
:1059100000000000000000000000000000A6315D53
:10592000EFFFFFCF7FAB5FAC67AB5F8B5F8B5F8BB6
:105930005F8B5F6B5F6B5F6B5F4B5F4B5F4B5FB909
:10594000CFDFFFBEF7BEF7BEF7BEF7BEF75297EA4E
:1059500056EA56EA56EA56EA56CA56CA56CA56CAC7
:1059600056AA56AA56AA568846F4A65DEF34A5C391
:1059700018000000000000000000000000B294DFEA
:10598000FFD8C7AB5FAB5FAB5F8B5F8B5F8B5F6B32
:105990005F6B5F6B5F6B5F4B5F4B5F4B5F4B5F9909
:1059A000CFBEF7BEF7BEF7BEF7BEF7BEF75297EA17
:1059B00056EA56EA56CA56CA56CA56CA56CA56AAC7
:1059C00056A94E894E894E894E68465BDF3CE78A70
:1059D000520000000000000000000082107DEFDE99
:1059E000F7B087AB5FAB5F8B5F8B5F8B5F6B5F6B82
:1059F0005F6B5F6B5F4B5F4B5F4B5F4B5F2B5F99E9
:105A0000CFBEF7BEF7BEF7BEF7BEF7BEF73297EAD6
:105A100056EA56CA56CA56CA56A94E8846873E65A1
:105A20002E452E4426231E231E0216F4A67DEFD3F8
:105A30009C41080000000000000000494A9EF7DA7F
:105A4000D7AD6FAB5F8B5F8B5F8B5F6B5F6B5F6B9C
:105A50005F6B5F4B5F4B5F4B5F4B5F2A572B5F99D1
:105A6000CFBEF7BEF7BEF7BEF7BEF7BEF73297EA76
:105A700056CA56CA56A846852E6426431E221622AA
:105A800016010E010E010EE10DE10D6B5E5DEFDB07
:105A9000DEA210000000000000000034A5DFFFB50A
:105AA000AFAB5F8B5F8B5F8B5F6B5F6B5F6B5F4BD6
:105AB0005F4B5F4A574A572A572A572A572B5F99F5
:105AC000CFBEF7BEF7BEF7BEF7BEF7BEF7318FC940
:105AD0004EA73E6426431E421622162216221601A7
:105AE0000E010E010EE10DE10DE10D052E39CF5D28
:105AF000EF08420000000000006108D7BDDEF7B2E9
:105B0000978A578B5F8B5F6B5F6B5F6B5F4A574A00
:105B1000574A574A572A572A572A572A570B5F99E5
:105B2000CFBEF7BEF7BEF7BEF7BEF7BEF70F7F8456
:105B300026631E42164216221622162216010E0156
:105B40000E010EE10DE10DC005C005E31DD4A65DFB
:105B5000EFCF7B000000000000042159CEDDEFAF45
:105B60007F8B5F8B5F6B5F6B5F6B5F4A574A574AF8
:105B7000574A572A572A572A572A570A570B5F99C5
:105B8000CFBEF7BEF7BEF7BEF79EF79EF7CD6E63AA
:105B90001E42164216221622162216010E010E0170
:105BA0000EE10DE10DC005C005C005C10DB18E5D52
:105BB000EF34A5200000000000E739BAD6DCE78DFD
:105BC0006F8A576A576A576A574A574A574A574A15
:105BD000572A572B5F518F52975297529752979B44
:105BE000DFBEF7BEF7BEF79EF79EF79EF7139FCD79
:105BF0006ECD6EAD6EAC6668460216010E010EE10A
:105C00000DE10DC005C005C005A005A0056E765CC0
:105C1000E7D7BD6108000000008A521CE7DBDF8C7B
:105C2000676A576A576A574A574A574A574A572A1C
:105C3000572A572A57739FBDEFBEF7BEF7BEF7BE70
:105C4000F7BEF7BEF79EF79EF79EF79EF79EF77D8D
:105C5000EF7DEF7DEF37BF6846010E010EE10DE1EC
:105C60000DC005C005C005A005A005A0054C663CFB
:105C7000E7F7BD821000000000CB5A3CE7BBDF6BAA
:105C80005F6A576A574A574A574A572A572A572A24
:105C9000572A570A570B5F539FBDEFBEF7BEF7BE9B
:105CA000F7BEF79EF79EF79EF79EF79EF77DEF7D76
:105CB000EF7DEF38C7673E0216010EE10DE10DC022
:105CC00005C005C005A005A005A005A0054B5E3BCD
:105CD000DFF7BDA21000000000CB5A3CE7BBDF6B32
:105CE0005F6A574A574A574A572A572A572A572A04
:105CF000570A57094F094F0A57318F9CE7BEF7BE25
:105D0000F79EF79EF79EF79EF77DEF7DEF7DEF7D87
:105D1000EF38C7452E010E010EE10DE10DC005C0A3
:105D200005C005A005A005A005A005A0054B5E3B8C
:105D3000DFF7BDA21000000000494AFBDEBBDF6CAC
:105D4000674A574A574A572A572A572A57294F0905
:105D50004F094F094FE94EE94EE94E318F9CE79EBE
:105D6000F79EF79EF79EF77DEF7DEF7DEF7DEF15B8
:105D7000AF4636010E010EE10DE10DC005C005C0B4
:105D800005A005A005A005A005A00580054C663C62
:105D9000E7F7BD821000000000A6319AD6BCE76D7F
:105DA0006F4A574A572A572A57294F094F094F090F
:105DB0004F094FE94EE94EE94EE94ECA5610877B2E
:105DC000DF9EF79EF79EF77DEF7DEF7DEF16B746DE
:105DD00036010E010EE10DE10DC005C005C005A0A4
:105DE00005A005A005A005A005A005A0056E763CB0
